:100000000C94B1000C9428020C94CE000C94CE00F9
:100010000C94CE000C94CE000C94CE000C94CE0028
:100020000C94CE000C94CE000C94CE000C94CE0018
:100030000C94CE000C94CE000C94CE000C94CE0008
:100040000C94CE000C94CE000C94CE000C94CE00F8
:100050000C94CE000C9437020C94CE000C94CE007D
:100060000C94CE000C94CE0000407A10F35A00A0FD
:10007000724E18090010A5D4E80000E87648170071
:1000800000E40B54020000CA9A3B000000E1F505B1
:10009000000080969800000040420F000000A086FB
:1000A00001000000102700000000E803000000002D
:1000B0006400000000000A000000000001000000D1
:1000C00000002C76D888DC674F0823DFC1DFAE59EB
:1000D000E1B1B796E5E3E453C63AE651997696E87E
:1000E000E6C28426EB898C9B62ED407C6FFCEFBC02
:1000F0009C9F40F2BAA56FA5F490055A2AF75C932D
:100100006B6CF9676DC11BFCE0E40D47FEF520E662
:10011000B500D0ED902E0300943577050080841E45
:10012000080000204E0A000000C80C333333330FA0
:10013000986E12831141EF8D2114893BE65516CF3D
:10014000FEE6DB18D1844B381BF77C1D901DA4BB49
:10015000E424203284725E228100C9F124ECA1E5FE
:100160003D2711241FBECFEFD8E0DEBFCDBF11E089
:10017000A0E0B1E0EEE5F2E102C005900D92A235FB
:10018000B107D9F721E0A2E5B1E001C01D92A63583
:10019000B207E1F70E946E020C942D090C94000046
:1001A00080E480937C0087E880937A000895ECE7F0
:1001B000F0E09081907F8F70892B8083EAE7F0E0F8
:1001C00080818064808380917A0086FDFCCF80915D
:1001D0007800909179000895ECE7F0E09081907FAD
:1001E0008F70892B8083EAE7F0E0808180648083D0
:1001F000089580917A00829586958695837091E026
:100200008927817008951092B90088E48093B8001E
:1002100084E08093BC00089594EA9093BC00909190
:10022000BC009923E4F79091B900987F983029F0A9
:100230009091B900987F903189F4880F8093BB002A
:1002400084E88093BC008091BC008823E4F780910F
:10025000B900887F883121F080E0089580E008951A
:1002600081E008958093BB0084E88093BC00809176
:10027000BC008823E4F79091B900987F81E0983220
:1002800009F080E0089584EC8093BC008091BC006C
:100290008823E4F78091BB00089584E88093BC0034
:1002A0008091BC008823E4F78091BB00089584E925
:1002B0008093BC008FE891E00197F1F700C0000047
:1002C0000895CF93DF9388E40E940C01882341F1C5
:1002D00080E00E94320189E40E940C010E944301E7
:1002E000C82F0E944D01D82F0E9457016C2F70E03B
:1002F000762F66276D2B660F672F661F770B072EED
:10030000000C880B990B0E94D60220E030E040E000
:100310005FE30E941103562F472F382F292F04C067
:1003200050E040EC39E724EC652F742F832F922F97
:10033000DF91CF9108959B01AC0160E472E48FE0FE
:1003400090E00E94CF03215031093093C5002093E3
:10035000C40088E18093C10086E08093C2000895C4
:100360009091C00095FFFCCF8093C6000895CF9375
:10037000DF93EC0103C021960E94B00188818111B6
:10038000FACFDF91CF9108950F931F93CF93DF930F
:10039000CDB7DEB72A970FB6F894DEBF0FBECDBF3C
:1003A0009F938F9380E091E09F938F938E010F5FD7
:1003B0001F4F1F930F930E941104C8010E94B701A1
:1003C0000F900F900F900F900F900F902A960FB6EE
:1003D000F894DEBF0FBECDBFDF91CF911F910F917B
:1003E00008950F931F93CF93DF93CDB7DEB7649734
:1003F0000FB6F894DEBF0FBECDBF242F30E08E01C4
:100400000F5F1F4F44E050E00E94F103C8010E94BB
:10041000B70164960FB6F894DEBF0FBECDBFDF9173
:10042000CF911F910F910895E9E6F0E080818260FD
:10043000808380818E7F80838DB381608DBB8AB104
:100440008B7F8AB98BB184608BB9089578940895B5
:100450001F920F920FB60F9211248F9381E0809319
:1004600052018F910F900FBE0F901F9018951F9201
:100470000F920FB60F9211248F939F938091780063
:1004800090917900909355018093540181E080937D
:1004900053019F918F910F900FBE0F901F90189551
:1004A00060E875E280E090E00E949B010E94D0002D
:1004B0000E9403010E9414020E94260284B18160FE
:1004C00084B985B18E7F85B9EAE7F0E080818860E4
:1004D000808383E091E00E94B70108950E9450025A
:1004E000C0E001C0C0E08DECC89F812D112486952D
:1004F00086958695880F982F990F990F890FC813A5
:100500003AC080E00E94EC000E94F900892BE1F3E0
:1005100080E00E94D700909355018093540189E1B7
:1005200091E00E94B70180915401909155010E9481
:10053000C4018EE491E00E94B70189E2C89F812D39
:10054000112482958F709C2F24E6829F901911248C
:10055000911111C00E9461016B017C018FE191E05A
:100560000E94B70141E0C701B6010E94F1018AE291
:1005700091E00E94B70180915201882351F08FE2EF
:1005800091E00E94B70195B181E0892785B9109269
:10059000520183EC99E00197F1F700C00000CF5FB2
:1005A000C43608F09FCF9FCFE89409C097FB3EF474
:1005B00090958095709561957F4F8F4F9F4F9923B0
:1005C000A9F0F92F96E9BB279395F695879577952E
:1005D0006795B795F111F8CFFAF4BB0F11F460FFEE
:1005E0001BC06F5F7F4F8F4F9F4F16C0882311F046
:1005F00096E911C0772321F09EE8872F762F05C05A
:10060000662371F096E8862F70E060E02AF09A95F4
:10061000660F771F881FDAF7880F9695879597F9E9
:1006200008950E9424030C9495030E94870338F0D8
:100630000E948E0320F0952311F00C947E030C94FD
:10064000840311240C94C9030E94A60370F3959FA0
:10065000C1F3950F50E0551F629FF001729FBB27B9
:10066000F00DB11D639FAA27F00DB11DAA1F649F55
:100670006627B00DA11D661F829F2227B00DA11D08
:10068000621F739FB00DA11D621F839FA00D611D8E
:10069000221F749F3327A00D611D231F849F600DAF
:1006A000211D822F762F6A2F11249F5750409AF0D8
:1006B000F1F088234AF0EE0FFF1FBB1F661F771F64
:1006C000881F91505040A9F79E3F510580F00C942F
:1006D0007E030C94C9035F3FE4F3983ED4F3869500
:1006E00077956795B795F795E7959F5FC1F7FE2BCF
:1006F000880F911D9695879597F9089597F99F67AB
:1007000080E870E060E008959FEF80EC0895002499
:100710000A941616170618060906089500240A9466
:1007200012161306140605060895092E0394000CEC
:1007300011F4882352F0BB0F40F4BF2B11F460FF7B
:1007400004C06F5F7F4F8F4F9F4F089557FD9058A4
:10075000440F551F59F05F3F71F04795880F97FB85
:10076000991F61F09F3F79F087950895121613063F
:100770001406551FF2CF4695F1DF08C0161617066E
:100780001806991FF1CF86957105610508940895A3
:10079000E894BB2766277727CB0197F90895A1E254
:1007A0001A2EAA1BBB1BFD010DC0AA1FBB1FEE1FEB
:1007B000FF1FA217B307E407F50720F0A21BB30B36
:1007C000E40BF50B661F771F881F991F1A9469F7B2
:1007D00060957095809590959B01AC01BD01CF010E
:1007E0000895EF920F931F93CF93DF93E80147FD96
:1007F00002C034E001C034E1042E000C550B57FF59
:1008000003C0519541955109E32E022F242FAE01CB
:100810000E941406CE01DF91CF911F910F91EF90AE
:100820000895AEE0B0E0E7E1F4E00C9404090D892E
:100830001E8986E08C831A8309838FEF9FE79E834E
:100840008D83AE01475E5F4F6F89788DCE01019633
:100850000E943304EF81F885E00FF11F10822E967D
:10086000E4E00C942009ABE0B0E0E9E3F4E00C94A0
:10087000F6086C017B018A01FC01178216828381D4
:1008800081FFCCC1CE0101963C01F6019381F701B5
:1008900093FD859193FF81917F01882309F4BAC16B
:1008A000853239F493FD859193FF81917F018532E3
:1008B00029F4B60190E00E945C08E7CF912C212C2E
:1008C000312CFFE1F315D8F08B3279F038F4803217
:1008D00079F08332A1F4232D20611DC08D3261F0A7
:1008E000803369F4232D216016C0832D8260382E59
:1008F000E32DE4603E2E2AC0F32DF8601DC037FCC6
:100900002DC020ED280F2A3040F08E32B9F436FC8D
:1009100081C1232D2064322E19C036FE06C08AE024
:10092000989E200D1124922E11C0EAE02E9E200DDB
:100930001124222EF32DF0623F2E08C08C3621F4B4
:10094000832D8068382E02C0883641F4F70193FD6C
:10095000859193FF81917F018111B3CF982F9F7D66
:100960009554933028F40C5F1F4F9FE399830DC07B
:10097000833631F0833771F0833509F059C021C0D7
:10098000F801808189830E5F1F4F88248394912C06
:10099000530113C02801F2E04F0E511CF801A08052
:1009A000B18036FE03C0692D70E002C06FEF7FEFAB
:1009B000C5010E9451084C018201F32DFF773F2EA3
:1009C00016C0280122E0420E511CF801A080B1801F
:1009D00036FE03C0692D70E002C06FEF7FEFC501E6
:1009E0000E9446084C01F32DF0683F2E820133FC33
:1009F0001BC0822D90E088169906B0F4B60180E203
:100A000090E00E945C082A94F4CFF50137FC8591B0
:100A100037FE81915F01B60190E00E945C082110D1
:100A20002A9421E0821A91088114910471F7E8C098
:100A3000843611F0893641F5F80137FE07C0608130
:100A40007181828193810C5F1F4F08C06081718129
:100A5000072E000C880B990B0E5F1F4FF32DFF76AE
:100A60003F2E97FF09C090958095709561957F4FB7
:100A70008F4F9F4FF0683F2E2AE030E0A3010E9485
:100A80009808882E861845C0853731F4232D2F7E8F
:100A9000B22E2AE030E025C0932D997FB92E8F36F3
:100AA000C1F018F4883579F0B5C0803719F088376F
:100AB00021F0B0C0E92FE061BE2EB4FE0DC0FB2DC9
:100AC000F460BF2E09C034FE0AC0292F2660B22E62
:100AD00006C028E030E005C020E130E002C020E19F
:100AE00032E0F801B7FE07C0608171818281938195
:100AF0000C5F1F4F06C06081718180E090E00E5F47
:100B00001F4FA3010E949808882E8618FB2DFF779F
:100B10003F2E36FE0DC0232D2E7FA22E891458F4B1
:100B200034FE0BC032FC09C0832D8E7EA82E05C07A
:100B3000B82CA32C03C0B82C01C0B92CA4FE0FC044
:100B4000FE01E80DF11D8081803321F49A2D997EFC
:100B5000A92E09C0A2FE06C0B394B39404C08A2D86
:100B6000867809F0B394A3FC11C0A0FE06C0B214AD
:100B700088F4280C922C9B180EC0B21460F4B601B5
:100B800080E290E00E945C08B394F7CFB21418F4AE
:100B90002B1802C0982C212CA4FE10C0B60180E3B3
:100BA00090E00E945C08A2FE17C0A1FC03C088E789
:100BB00090E002C088E590E0B6010CC08A2D8678EE
:100BC00059F0A1FE02C08BE201C080E2A7FC8DE2D9
:100BD000B60190E00E945C08891438F4B60180E305
:100BE00090E00E945C089A94F7CF8A94F301E80D94
:100BF000F11D8081B60190E00E945C088110F5CF64
:100C0000222009F442CEB60180E290E00E945C0806
:100C10002A94F6CFF6018681978102C08FEF9FEF6D
:100C20002B96E2E10C941209A9E0B0E0EAE1F6E0CB
:100C30000C94FC086A01122FB02E2BE3201720F031
:100C4000FF24F394F00E02C02CE3F22E0F2D27E0C8
:100C5000AE014F5F5F4F0E946E07BC014981842F38
:100C60008970813031F0E1FC06C0E0FE06C090E200
:100C700005C09DE203C09BE201C090E05E2D507173
:100C800043FF3CC0911102C083E001C084E08117A2
:100C900018F4212F281B01C020E051110BC0F601D0
:100CA000822F30E2882319F031938150FBCFC20E9E
:100CB000D11C20E0992329F0D6019C93F6013196AE
:100CC0006F01C6010396E2FE0AC03EE4D6013C93E2
:100CD00041E411964C93119712963C9306C03EE660
:100CE000F601308341E641833283FC01322F40E23A
:100CF000332309F442C041933150FACF42FF44C03C
:100D0000911102C083E001C084E0811718F4212F03
:100D1000281B01C020E051110BC0F601822F30E2E8
:100D2000882319F031938150FBCFC20ED11C20E0F3
:100D3000992329F0D6019C93F60131966F01C601E3
:100D40000396E2FE0BC039E4D6013C933EE41196D3
:100D50003C93119736E412963C9307C039E6F601AE
:100D600030833EE6318336E63283FC01322F40E2A7
:100D7000332319F041933150FBCFFC01E20FF11DF9
:100D800010828EEF9FEFA6C021E030E0911102C0EB
:100D900020E030E0161617061CF4FB01319602C065
:100DA000E1E0F0E02E0F3F1FBB2021F0EB2DF0E043
:100DB000319602C0E0E0F0E02E0F3F1FE12FF0E09F
:100DC0002E173F071CF4121B212F01C020E08E2D8F
:100DD000887159F4F601822F30E2882319F031939B
:100DE0008150FBCFC20ED11C20E0992329F0D601FF
:100DF0009C93F60131966F0151110BC0F601822FC1
:100E000090E3882319F091938150FBCFC20ED11C3F
:100E100020E00F2D060F9A81342F307144FF03C05C
:100E2000913309F40150101624F4093018F008E049
:100E300001C001E0AB0177FF02C040E050E0FB01E0
:100E4000E41BF50BA1E0B0E0AC0FBD1FEA0FFB1FE8
:100E50008EE2A82E4B01801A91080B2D10E01195FF
:100E6000019511094F3FBFEF5B0721F4D601AC920A
:100E700011966D01641775072CF08416950614F40D
:100E8000818101C080E3415051093196D60111960C
:100E90007D014017510724F0D6018C936701E2CF02
:100EA0006417750739F4963320F4953319F431112A
:100EB00001C081E3F6018083F701822F90E288234D
:100EC00019F091938150FBCFF701E20FF11D1082D1
:100ED00080E090E02996ECE00C941809283008F0A6
:100EE00027E03327DA01990F311D87FD91600096C5
:100EF0006105710539F432602E5F3D9330E32A9528
:100F0000E1F708959F3F30F080387105610509F0E1
:100F10003C5F3C5F3D93913008F08068911DDF930A
:100F2000CF931F930F93FF92EF92192F987F96956F
:100F3000E92F96959695E90FFF27EE53FF4F9927D6
:100F40003327EE24FF24A701E701059008940794B6
:100F500028F4360FE71EF81E491F511D660F771F34
:100F6000881F991F0694A1F70590079428F4E70EAF
:100F7000F81E491F561FC11D770F881F991F661F36
:100F80000694A1F70590079428F4F80E491F561F00
:100F9000C71FD11D880F991F661F771F0694A1F7E1
:100FA0000590079420F4490F561FC71FD81F990FAB
:100FB000661F771F881F0694A9F7849110951770F4
:100FC00041F0D695C79557954795F794E7941A95AC
:100FD000C1F7E8E6F0E068941590159135916591B8
:100FE000959105907FE27395E118F10A430B560B3A
:100FF000C90BD009C0F7E10CF11E431F561FC91FD2
:10100000D01D7EF4703311F48A95E6CFE894015038
:1010100030F0080F0AF40027021708F4202F239558
:10102000022F7A3328F079E37D932A95E9F710C0EF
:101030007D932A9589F60694979567953795179528
:101040001794E118F10A430B560BC90BD00998F01D
:1010500023957E9173957A3308F070E37C93201387
:10106000B8F77E9170617D9330F0839571E37D9345
:1010700070E32A95E1F71124EF90FF900F911F91F3
:10108000CF91DF91992787FD90950895FC010590F8
:10109000615070400110D8F7809590958E0F9F1F7A
:1010A0000895FC016150704001900110D8F78095BF
:1010B00090958E0F9F1F08950F931F93CF93DF93EB
:1010C000FB01238121FD03C08FEF9FEF2CC022FF86
:1010D00016C046815781248135814217530744F455
:1010E000A081B1819D012F5F3F4F318320838C937D
:1010F000268137812F5F3F4F3783268314C08B01B2
:10110000EC01FB010084F185E02D0995892BE1F6C6
:10111000D80116968D919C911797019617969C93DE
:101120008E931697CE01DF91CF911F910F91089565
:10113000FA01AA27283051F1203181F1E8946F9308
:101140006E7F6E5F7F4F8F4F9F4FAF4FB1E03ED0AE
:10115000B4E03CD0670F781F891F9A1FA11D680F4C
:10116000791F8A1F911DA11D6A0F711D811D911D7F
:10117000A11D20D009F468943F912AE0269F1124F4
:101180003019305D3193DEF6CF010895462F477058
:10119000405D4193B3E00FD0C9F7F6CF462F4F70B3
:1011A000405D4A3318F0495D31FD4052419302D011
:1011B000A9F7EACFB4E0A6959795879577956795B7
:1011C000BA95C9F700976105710508959B01AC01B7
:1011D0000A2E06945795479537952795BA95C9F7DE
:1011E000620F731F841F951FA01D08952F923F92B9
:1011F0004F925F926F927F928F929F92AF92BF9227
:10120000CF92DF92EF92FF920F931F93CF93DF93D2
:10121000CDB7DEB7CA1BDB0B0FB6F894DEBF0FBE2F
:10122000CDBF09942A88398848885F846E847D847C
:101230008C849B84AA84B984C884DF80EE80FD807E
:101240000C811B81AA81B981CE0FD11D0FB6F894F4
:0E125000DEBF0FBECDBFED010895F894FFCFB5
:10125E0025750053697374656D6120496E69636904
:10126E0061646F2E2E2E0D0A004144433A20005425
:10127E00656D70204932433A2000B0430D0A004993
:10128E006E74657272757063696F6E2065787465C1
:10129E00726E6120646574656374616461210D0A08
:0212AE0000003E
:00000001FF
